{
  "abi": [
    {
      "inputs": [
        {
          "internalType": "address",
          "name": "turnstileAddr",
          "type": "address"
        },
        {
          "internalType": "address",
          "name": "csrCANTOaddr",
          "type": "address"
        },
        {
          "internalType": "address",
          "name": "_csc_stakers",
          "type": "address"
        }
      ],
      "stateMutability": "nonpayable",
      "type": "constructor"
    },
    {
      "anonymous": false,
      "inputs": [
        {
          "indexed": true,
          "internalType": "address",
          "name": "erc20",
          "type": "address"
        },
        {
          "indexed": true,
          "internalType": "address",
          "name": "csrERC20",
          "type": "address"
        }
      ],
      "name": "Created",
      "type": "event"
    },
    {
      "anonymous": false,
      "inputs": [
        {
          "indexed": true,
          "internalType": "address",
          "name": "previousOwner",
          "type": "address"
        },
        {
          "indexed": true,
          "internalType": "address",
          "name": "newOwner",
          "type": "address"
        }
      ],
      "name": "OwnershipTransferred",
      "type": "event"
    },
    {
      "inputs": [
        {
          "internalType": "address",
          "name": "claimer",
          "type": "address"
        },
        {
          "internalType": "address",
          "name": "payee",
          "type": "address"
        },
        {
          "internalType": "address",
          "name": "csrERC20",
          "type": "address"
        }
      ],
      "name": "addClaimer",
      "outputs": [],
      "stateMutability": "nonpayable",
      "type": "function"
    },
    {
      "inputs": [
        {
          "internalType": "address payable",
          "name": "erc20",
          "type": "address"
        }
      ],
      "name": "create",
      "outputs": [
        {
          "internalType": "address",
          "name": "",
          "type": "address"
        }
      ],
      "stateMutability": "nonpayable",
      "type": "function"
    },
    {
      "inputs": [],
      "name": "cron",
      "outputs": [
        {
          "internalType": "address",
          "name": "",
          "type": "address"
        }
      ],
      "stateMutability": "view",
      "type": "function"
    },
    {
      "inputs": [],
      "name": "csc_stakers",
      "outputs": [
        {
          "internalType": "address",
          "name": "",
          "type": "address"
        }
      ],
      "stateMutability": "view",
      "type": "function"
    },
    {
      "inputs": [
        {
          "internalType": "address",
          "name": "claimer",
          "type": "address"
        },
        {
          "internalType": "address",
          "name": "csrERC20",
          "type": "address"
        }
      ],
      "name": "delClaimer",
      "outputs": [],
      "stateMutability": "nonpayable",
      "type": "function"
    },
    {
      "inputs": [],
      "name": "getCSCstakersAddress",
      "outputs": [
        {
          "internalType": "address",
          "name": "cscStakers",
          "type": "address"
        }
      ],
      "stateMutability": "view",
      "type": "function"
    },
    {
      "inputs": [
        {
          "internalType": "address",
          "name": "erc20",
          "type": "address"
        }
      ],
      "name": "getCsrERC20",
      "outputs": [
        {
          "internalType": "address",
          "name": "csrERC20",
          "type": "address"
        }
      ],
      "stateMutability": "view",
      "type": "function"
    },
    {
      "inputs": [
        {
          "internalType": "address",
          "name": "csrERC20",
          "type": "address"
        }
      ],
      "name": "getERC20",
      "outputs": [
        {
          "internalType": "address",
          "name": "erc20",
          "type": "address"
        }
      ],
      "stateMutability": "view",
      "type": "function"
    },
    {
      "inputs": [
        {
          "internalType": "uint256",
          "name": "i",
          "type": "uint256"
        }
      ],
      "name": "getTokenPairById",
      "outputs": [
        {
          "internalType": "address",
          "name": "erc20",
          "type": "address"
        },
        {
          "internalType": "address",
          "name": "csrERC20",
          "type": "address"
        }
      ],
      "stateMutability": "view",
      "type": "function"
    },
    {
      "inputs": [],
      "name": "getTokenPairsCount",
      "outputs": [
        {
          "internalType": "uint256",
          "name": "count",
          "type": "uint256"
        }
      ],
      "stateMutability": "view",
      "type": "function"
    },
    {
      "inputs": [
        {
          "internalType": "address",
          "name": "",
          "type": "address"
        }
      ],
      "name": "hasBeenCreated",
      "outputs": [
        {
          "internalType": "bool",
          "name": "",
          "type": "bool"
        }
      ],
      "stateMutability": "view",
      "type": "function"
    },
    {
      "inputs": [
        {
          "internalType": "address",
          "name": "addr",
          "type": "address"
        }
      ],
      "name": "isCsrERC20",
      "outputs": [
        {
          "internalType": "bool",
          "name": "result",
          "type": "bool"
        }
      ],
      "stateMutability": "view",
      "type": "function"
    },
    {
      "inputs": [],
      "name": "owner",
      "outputs": [
        {
          "internalType": "address",
          "name": "",
          "type": "address"
        }
      ],
      "stateMutability": "view",
      "type": "function"
    },
    {
      "inputs": [
        {
          "internalType": "address",
          "name": "csrERC20",
          "type": "address"
        }
      ],
      "name": "pullFundsFromTurnstile",
      "outputs": [],
      "stateMutability": "nonpayable",
      "type": "function"
    },
    {
      "inputs": [],
      "name": "renounceOwnership",
      "outputs": [],
      "stateMutability": "nonpayable",
      "type": "function"
    },
    {
      "inputs": [
        {
          "internalType": "address",
          "name": "admin",
          "type": "address"
        },
        {
          "internalType": "address",
          "name": "csrERC20",
          "type": "address"
        }
      ],
      "name": "setAdmin",
      "outputs": [],
      "stateMutability": "nonpayable",
      "type": "function"
    },
    {
      "inputs": [
        {
          "internalType": "address",
          "name": "newCron",
          "type": "address"
        }
      ],
      "name": "setCron",
      "outputs": [],
      "stateMutability": "nonpayable",
      "type": "function"
    },
    {
      "inputs": [
        {
          "internalType": "address",
          "name": "newCscStakers",
          "type": "address"
        }
      ],
      "name": "setCscStakers",
      "outputs": [],
      "stateMutability": "nonpayable",
      "type": "function"
    },
    {
      "inputs": [
        {
          "internalType": "uint256",
          "name": "",
          "type": "uint256"
        }
      ],
      "name": "tokenPairs",
      "outputs": [
        {
          "internalType": "address",
          "name": "erc20",
          "type": "address"
        },
        {
          "internalType": "address",
          "name": "csrErc20",
          "type": "address"
        }
      ],
      "stateMutability": "view",
      "type": "function"
    },
    {
      "inputs": [
        {
          "internalType": "address",
          "name": "newOwner",
          "type": "address"
        }
      ],
      "name": "transferOwnership",
      "outputs": [],
      "stateMutability": "nonpayable",
      "type": "function"
    }
  ],
  "bytecode": {
    "object": "0x60a06040523480156200001157600080fd5b50604051620040ea380380620040ea8339810160408190526200003491620001d1565b6200003f3362000164565b6001600160a01b0383811660808190526040516378a9bb4360e11b8152918416600483015260009163f153768690602401602060405180830381865afa1580156200008e573d6000803e3d6000fd5b505050506040513d601f19601f82011682018060405250810190620000b491906200021b565b608051604051630981022760e31b8152600481018390529192506001600160a01b031690634c081138906024016020604051808303816000875af115801562000101573d6000803e3d6000fd5b505050506040513d601f19601f820116820180604052508101906200012791906200021b565b5050600054600180546001600160a01b039283166001600160a01b0319918216179091556002805493909216921691909117905550620002359050565b600080546001600160a01b038381166001600160a01b0319831681178455604051919092169283917f8be0079c531659141344cd1fd0a4f28419497f9722a3daafe3b4186f6b6457e09190a35050565b80516001600160a01b0381168114620001cc57600080fd5b919050565b600080600060608486031215620001e757600080fd5b620001f284620001b4565b92506200020260208501620001b4565b91506200021260408501620001b4565b90509250925092565b6000602082840312156200022e57600080fd5b5051919050565b608051613e996200025160003960006107700152613e996000f3fe60806040523480156200001157600080fd5b5060043610620001895760003560e01c80639ed9331811620000dd578063bec4f2ca116200008b578063c55b6bb7116200006e578063c55b6bb714620003a1578063f2fde38b14620003b8578063f871da8014620003cf57600080fd5b8063bec4f2ca1462000373578063c2fa7016146200038a57600080fd5b8063a7c8b7fd11620000c0578063a7c8b7fd1462000324578063b38db982146200033b578063b90dc8ff146200035257600080fd5b80639ed9331814620002f6578063a15369d1146200030d57600080fd5b8063637c69ff116200013b578063715018a6116200011e578063715018a614620002b6578063857ed34f14620002c05780638da5cb5b14620002d757600080fd5b8063637c69ff146200026d5780636cc0ce73146200027f57600080fd5b80633792810f11620001705780633792810f14620001f85780634e0dc557146200023d5780635390f63a146200025457600080fd5b806304d5f087146200018e578063185a0ea614620001d9575b600080fd5b600254620001af9073ffffffffffffffffffffffffffffffffffffffff1681565b60405173ffffffffffffffffffffffffffffffffffffffff90911681526020015b60405180910390f35b60025473ffffffffffffffffffffffffffffffffffffffff16620001af565b6200020f6200020936600462000e21565b620003e6565b6040805173ffffffffffffffffffffffffffffffffffffffff938416815292909116602083015201620001d0565b620001af6200024e36600462000e5e565b62000475565b6200026b6200026536600462000e85565b62000543565b005b600354604051908152602001620001d0565b620002a56200029036600462000e5e565b60046020526000908152604090205460ff1681565b6040519015158152602001620001d0565b6200026b620005d5565b6200026b620002d136600462000e5e565b620005ed565b60005473ffffffffffffffffffffffffffffffffffffffff16620001af565b620001af6200030736600462000e5e565b620006d9565b6200020f6200031e36600462000e21565b62000918565b620001af6200033536600462000e5e565b6200095f565b6200026b6200034c36600462000e5e565b62000a24565b600154620001af9073ffffffffffffffffffffffffffffffffffffffff1681565b6200026b6200038436600462000e5e565b62000a75565b6200026b6200039b36600462000ec3565b62000ac6565b6200026b620003b236600462000e85565b62000b60565b6200026b620003c936600462000e5e565b62000bbf565b620002a5620003e036600462000e5e565b62000bd7565b60008060038381548110620003ff57620003ff62000f15565b60009182526020909120600290910201546003805473ffffffffffffffffffffffffffffffffffffffff909216918590811062000440576200044062000f15565b6000918252602090912060016002909202010154909473ffffffffffffffffffffffffffffffffffffffff9091169350915050565b6000805b6003548110156200053a578273ffffffffffffffffffffffffffffffffffffffff1660038281548110620004b157620004b162000f15565b600091825260209091206001600290920201015473ffffffffffffffffffffffffffffffffffffffff1603620005255760038181548110620004f757620004f762000f15565b600091825260209091206002909102015473ffffffffffffffffffffffffffffffffffffffff169392505050565b80620005318162000f44565b91505062000479565b50600092915050565b6200054d62000c61565b6040517fadf9b68500000000000000000000000000000000000000000000000000000000815273ffffffffffffffffffffffffffffffffffffffff838116600483015282169063adf9b685906024015b600060405180830381600087803b158015620005b857600080fd5b505af1158015620005cd573d6000803e3d6000fd5b505050505050565b620005df62000c61565b620005eb600062000ce4565b565b60015473ffffffffffffffffffffffffffffffffffffffff16331462000674576040517f08c379a000000000000000000000000000000000000000000000000000000000815260206004820152601a60248201527f4373724552433230466163746f72793a206f6e6c792063726f6e00000000000060448201526064015b60405180910390fd5b8073ffffffffffffffffffffffffffffffffffffffff1663825386666040518163ffffffff1660e01b8152600401600060405180830381600087803b158015620006bd57600080fd5b505af1158015620006d2573d6000803e3d6000fd5b5050505050565b73ffffffffffffffffffffffffffffffffffffffff811660009081526004602052604081205460ff16156200076b576040517f08c379a000000000000000000000000000000000000000000000000000000000815260206004820181905260248201527f4373724552433230466163746f72793a20616c7265616479206372656174656460448201526064016200066b565b6000827f0000000000000000000000000000000000000000000000000000000000000000306040516200079e9062000e13565b73ffffffffffffffffffffffffffffffffffffffff938416815291831660208301529091166040820152606001604051809103906000f080158015620007e8573d6000803e3d6000fd5b5060408051808201825273ffffffffffffffffffffffffffffffffffffffff808716808352818516602080850182815260038054600181810183556000928352975160029091027fc2575a0e9e593c00f959f8c92f12db2869c3395a3b0502d05e2516446f71f85b810180549289167fffffffffffffffffffffffff000000000000000000000000000000000000000093841617905592517fc2575a0e9e593c00f959f8c92f12db2869c3395a3b0502d05e2516446f71f85c9093018054939097169216919091179094558284526004905284832080547fffffffffffffffffffffffffffffffffffffffffffffffffffffffffffffff0016909417909355925193945090927f587ece4cd19692c5be1a4184503d607d45542d2aca0698c0068f52e09ccb541c9190a392915050565b600381815481106200092957600080fd5b60009182526020909120600290910201805460019091015473ffffffffffffffffffffffffffffffffffffffff91821692501682565b6000805b6003548110156200053a578273ffffffffffffffffffffffffffffffffffffffff16600382815481106200099b576200099b62000f15565b600091825260209091206002909102015473ffffffffffffffffffffffffffffffffffffffff160362000a0f5760038181548110620009de57620009de62000f15565b600091825260209091206001600290920201015473ffffffffffffffffffffffffffffffffffffffff169392505050565b8062000a1b8162000f44565b91505062000963565b62000a2e62000c61565b600180547fffffffffffffffffffffffff00000000000000000000000000000000000000001673ffffffffffffffffffffffffffffffffffffffff92909216919091179055565b62000a7f62000c61565b600280547fffffffffffffffffffffffff00000000000000000000000000000000000000001673ffffffffffffffffffffffffffffffffffffffff92909216919091179055565b62000ad062000c61565b6040517f96db081600000000000000000000000000000000000000000000000000000000815273ffffffffffffffffffffffffffffffffffffffff848116600483015283811660248301528216906396db081690604401600060405180830381600087803b15801562000b4257600080fd5b505af115801562000b57573d6000803e3d6000fd5b50505050505050565b62000b6a62000c61565b6040517f704b6c0200000000000000000000000000000000000000000000000000000000815273ffffffffffffffffffffffffffffffffffffffff838116600483015282169063704b6c02906024016200059d565b62000bc962000c61565b62000bd48162000d59565b50565b6000805b6003548110156200053a578273ffffffffffffffffffffffffffffffffffffffff166003828154811062000c135762000c1362000f15565b600091825260209091206001600290920201015473ffffffffffffffffffffffffffffffffffffffff160362000c4c5750600192915050565b8062000c588162000f44565b91505062000bdb565b60005473ffffffffffffffffffffffffffffffffffffffff163314620005eb576040517f08c379a000000000000000000000000000000000000000000000000000000000815260206004820181905260248201527f4f776e61626c653a2063616c6c6572206973206e6f7420746865206f776e657260448201526064016200066b565b6000805473ffffffffffffffffffffffffffffffffffffffff8381167fffffffffffffffffffffffff0000000000000000000000000000000000000000831681178455604051919092169283917f8be0079c531659141344cd1fd0a4f28419497f9722a3daafe3b4186f6b6457e09190a35050565b62000d6362000c61565b73ffffffffffffffffffffffffffffffffffffffff811662000e08576040517f08c379a000000000000000000000000000000000000000000000000000000000815260206004820152602660248201527f4f776e61626c653a206e6577206f776e657220697320746865207a65726f206160448201527f646472657373000000000000000000000000000000000000000000000000000060648201526084016200066b565b62000bd48162000ce4565b612ebf8062000fa583390190565b60006020828403121562000e3457600080fd5b5035919050565b73ffffffffffffffffffffffffffffffffffffffff8116811462000bd457600080fd5b60006020828403121562000e7157600080fd5b813562000e7e8162000e3b565b9392505050565b6000806040838503121562000e9957600080fd5b823562000ea68162000e3b565b9150602083013562000eb88162000e3b565b809150509250929050565b60008060006060848603121562000ed957600080fd5b833562000ee68162000e3b565b9250602084013562000ef88162000e3b565b9150604084013562000f0a8162000e3b565b809150509250925092565b7f4e487b7100000000000000000000000000000000000000000000000000000000600052603260045260246000fd5b60007fffffffffffffffffffffffffffffffffffffffffffffffffffffffffffffffff820362000f9d577f4e487b7100000000000000000000000000000000000000000000000000000000600052601160045260246000fd5b506001019056fe61010060405260006009553480156200001757600080fd5b5060405162002ebf38038062002ebf8339810160408190526200003a91620002f7565b82836001600160a01b03166306fdde036040518163ffffffff1660e01b8152600401600060405180830381865afa1580156200007a573d6000803e3d6000fd5b505050506040513d6000823e601f3d908101601f19168201604052620000a4919081019062000387565b604051602001620000b691906200043f565b604051602081830303815290604052846001600160a01b03166395d89b416040518163ffffffff1660e01b8152600401600060405180830381865afa15801562000104573d6000803e3d6000fd5b505050506040513d6000823e601f3d908101601f191682016040526200012e919081019062000387565b60405160200162000140919062000475565b60408051601f1981840301815291905260036200015e838262000531565b5060046200016d828262000531565b5050306001600160a01b038316039050620001ce5760405162461bcd60e51b815260206004820152601e60248201527f4552433230577261707065723a2063616e6e6f742073656c6620777261700000604482015260640160405180910390fd5b6001600160a01b039081166080526001600555600680546001600160a01b031916838316179055821660a0819052604051632210724360e11b8152306004820152634420e486906024016020604051808303816000875af115801562000238573d6000803e3d6000fd5b505050506040513d601f19601f820116820180604052508101906200025e9190620005fd565b5060a0516040516378a9bb4360e11b81523060048201526001600160a01b039091169063f153768690602401602060405180830381865afa158015620002a8573d6000803e3d6000fd5b505050506040513d601f19601f82011682018060405250810190620002ce9190620005fd565b60e05250503360c0525062000617565b6001600160a01b0381168114620002f457600080fd5b50565b6000806000606084860312156200030d57600080fd5b83516200031a81620002de565b60208501519093506200032d81620002de565b60408501519092506200034081620002de565b809150509250925092565b634e487b7160e01b600052604160045260246000fd5b60005b838110156200037e57818101518382015260200162000364565b50506000910152565b6000602082840312156200039a57600080fd5b81516001600160401b0380821115620003b257600080fd5b818401915084601f830112620003c757600080fd5b815181811115620003dc57620003dc6200034b565b604051601f8201601f19908116603f011681019083821181831017156200040757620004076200034b565b816040528281528760208487010111156200042157600080fd5b6200043483602083016020880162000361565b979650505050505050565b6b021a9a91032b730b13632b2160a51b8152600082516200046881600c85016020870162000361565b91909101600c0192915050565b6231b9b960e91b8152600082516200049581600385016020870162000361565b9190910160030192915050565b600181811c90821680620004b757607f821691505b602082108103620004d857634e487b7160e01b600052602260045260246000fd5b50919050565b601f8211156200052c57600081815260208120601f850160051c81016020861015620005075750805b601f850160051c820191505b81811015620005285782815560010162000513565b5050505b505050565b81516001600160401b038111156200054d576200054d6200034b565b62000565816200055e8454620004a2565b84620004de565b602080601f8311600181146200059d5760008415620005845750858301515b600019600386901b1c1916600185901b17855562000528565b600085815260208120601f198616915b82811015620005ce57888601518255948401946001909101908401620005ad565b5085821015620005ed5787850151600019600388901b60f8161c191681555b5050505050600190811b01905550565b6000602082840312156200061057600080fd5b5051919050565b60805160a05160c05160e05161281a620006a56000396000818161077901528181610b7b01528181610c9e015281816112a901526113cc01526000818161098801526111ee0152600081816101f901528181610ba401528181610cd1015281816112d201526113ff01526000818161062001528181610f1501528181610ff40152611029015261281a6000f3fe6080604052600436106101dc5760003560e01c8063395093511161010257806396db081611610095578063adf9b68511610064578063adf9b68514610747578063af0770bd14610767578063b6b55f251461079b578063dd62ed3e146107bb57600080fd5b806396db0816146106d1578063a457c2d7146106f1578063a9059cbb14610711578063ab96cc4c1461073157600080fd5b8063704b6c02116100d1578063704b6c021461064457806370a082311461066457806382538666146106a757806395d89b41146106bc57600080fd5b806339509351146105bb57806347c88f5c146105db5780635d16eb5c146105f15780636f307dc31461061157600080fd5b80631aa3a0081161017a5780632e1a7d4d116101495780632e1a7d4d146105115780632f4f21e214610531578063310441fa14610551578063313ce5671461059457600080fd5b80631aa3a0081461046a578063205c28781461047f57806323b872dd1461049f5780632a0acc6a146104bf57600080fd5b806310a8aecd116101b657806310a8aecd1461036957806318160ddd146103b157806318a5bbdc146103d05780631a675ec31461045557600080fd5b80630528588d146102f757806306fdde031461030e578063095ea7b31461033957600080fd5b366102f2573373ffffffffffffffffffffffffffffffffffffffff7f000000000000000000000000000000000000000000000000000000000000000016146102b85760405162461bcd60e51b8152602060048201526044602482018190527f61636365707420726563656976696e6720706c61696e202443414e544f207472908201527f616e7366657273206f6e6c792066726f6d207475726e7374696c6520636f6e7460648201527f7261637400000000000000000000000000000000000000000000000000000000608482015260a4015b60405180910390fd5b604080513381523460208201527f384b519ff9819d5a6c5a3e9480fa98990502d9adc22e68e77d0eac7efcce845b910160405180910390a1005b600080fd5b34801561030357600080fd5b5061030c61080e565b005b34801561031a57600080fd5b50610323610a9f565b6040516103309190612501565b60405180910390f35b34801561034557600080fd5b50610359610354366004612577565b610b31565b6040519015158152602001610330565b34801561037557600080fd5b506103596103843660046125a3565b73ffffffffffffffffffffffffffffffffffffffff90811660009081526007602052604090205416151590565b3480156103bd57600080fd5b506002545b604051908152602001610330565b3480156103dc57600080fd5b506104236103eb3660046125a3565b60076020526000908152604090208054600182015460029092015473ffffffffffffffffffffffffffffffffffffffff909116919083565b6040805173ffffffffffffffffffffffffffffffffffffffff9094168452602084019290925290820152606001610330565b34801561046157600080fd5b5061030c610b4b565b34801561047657600080fd5b5061030c610da9565b34801561048b57600080fd5b5061035961049a366004612577565b610f04565b3480156104ab57600080fd5b506103596104ba3660046125c0565b610f44565b3480156104cb57600080fd5b506006546104ec9073ffffffffffffffffffffffffffffffffffffffff1681565b60405173ffffffffffffffffffffffffffffffffffffffff9091168152602001610330565b34801561051d57600080fd5b5061035961052c366004612601565b610f6b565b34801561053d57600080fd5b5061035961054c366004612577565b610f77565b34801561055d57600080fd5b506104ec61056c3660046125a3565b60086020526000908152604090205473ffffffffffffffffffffffffffffffffffffffff1681565b3480156105a057600080fd5b506105a9611025565b60405160ff9091168152602001610330565b3480156105c757600080fd5b506103596105d6366004612577565b6110db565b3480156105e757600080fd5b506103c260095481565b3480156105fd57600080fd5b506103c261060c3660046125a3565b611127565b34801561061d57600080fd5b507f00000000000000000000000000000000000000000000000000000000000000006104ec565b34801561065057600080fd5b5061030c61065f3660046125a3565b611163565b34801561067057600080fd5b506103c261067f3660046125a3565b73ffffffffffffffffffffffffffffffffffffffff1660009081526020819052604090205490565b3480156106b357600080fd5b5061030c6111ce565b3480156106c857600080fd5b50610323611531565b3480156106dd57600080fd5b5061030c6106ec36600461261a565b611540565b3480156106fd57600080fd5b5061035961070c366004612577565b61168b565b34801561071d57600080fd5b5061035961072c366004612577565b61174d565b34801561073d57600080fd5b506103c2600a5481565b34801561075357600080fd5b5061030c6107623660046125a3565b611772565b34801561077357600080fd5b506103c27f000000000000000000000000000000000000000000000000000000000000000081565b3480156107a757600080fd5b506103596107b6366004612601565b611889565b3480156107c757600080fd5b506103c26107d636600461261a565b73ffffffffffffffffffffffffffffffffffffffff918216600090815260016020908152604080832093909416825291909152205490565b610816611895565b6000600954116108685760405162461bcd60e51b815260206004820152600f60248201527f6e6f20636c61696d65727320796574000000000000000000000000000000000060448201526064016102af565b3360009081526008602052604090205473ffffffffffffffffffffffffffffffffffffffff166108da5760405162461bcd60e51b815260206004820152601660248201527f6e6f7420696e2074686520706179656573206c6973740000000000000000000060448201526064016102af565b3360008181526008602081815260408084205473ffffffffffffffffffffffffffffffffffffffff168085526007835290842094845291905261091c90611127565b600a54600284015560006001840181905590915061271061093f836103e8612682565b6109499190612699565b905061095581836126d4565b604051909250339083156108fc029084906000818181858888f19350505050158015610985573d6000803e3d6000fd5b507f000000000000000000000000000000000000000000000000000000000000000073ffffffffffffffffffffffffffffffffffffffff1663185a0ea66040518163ffffffff1660e01b8152600401602060405180830381865afa1580156109f1573d6000803e3d6000fd5b505050506040513d601f19601f82011682018060405250810190610a1591906126e7565b73ffffffffffffffffffffffffffffffffffffffff166108fc829081150290604051600060405180830381858888f19350505050158015610a5a573d6000803e3d6000fd5b5060405182815233907f47cee97cb7acd717b3c0aa1435d004cd5b3c8c57d70dbceb4e4458bbd60e39d49060200160405180910390a2505050610a9d6001600555565b565b606060038054610aae90612704565b80601f0160208091040260200160405190810160405280929190818152602001828054610ada90612704565b8015610b275780601f10610afc57610100808354040283529160200191610b27565b820191906000526020600020905b815481529060010190602001808311610b0a57829003601f168201915b5050505050905090565b600033610b3f8185856118ee565b60019150505b92915050565b610b53611895565b6040517f4903b0d10000000000000000000000000000000000000000000000000000000081527f000000000000000000000000000000000000000000000000000000000000000060048201526000907f000000000000000000000000000000000000000000000000000000000000000073ffffffffffffffffffffffffffffffffffffffff1690634903b0d190602401602060405180830381865afa158015610c00573d6000803e3d6000fd5b505050506040513d601f19601f82011682018060405250810190610c249190612757565b905060008111610c765760405162461bcd60e51b815260206004820152601f60248201527f6e6f2066756e647320746f2070756c6c2066726f6d207475726e7374696c650060448201526064016102af565b6040517fe63697c80000000000000000000000000000000000000000000000000000000081527f00000000000000000000000000000000000000000000000000000000000000006004820152306024820152604481018290527f000000000000000000000000000000000000000000000000000000000000000073ffffffffffffffffffffffffffffffffffffffff169063e63697c8906064016020604051808303816000875af1158015610d2f573d6000803e3d6000fd5b505050506040513d601f19601f82011682018060405250810190610d539190612757565b5080600a54610d629190612770565b600a5560408051338152602081018390527f3701e589bebc20cd70bb7572632201203ea54c547b9d4f159e7d9230955613f0910160405180910390a150610a9d6001600555565b323314610df85760405162461bcd60e51b815260206004820152601960248201527f52656769737472616e74206d75737420626520616e20454f410000000000000060448201526064016102af565b3360009081526007602052604090205473ffffffffffffffffffffffffffffffffffffffff1615610e6b5760405162461bcd60e51b815260206004820152601f60248201527f416c72656164792072656769737465726564206173206120636c61696d65720060448201526064016102af565b33600081815260076020908152604080832080547fffffffffffffffffffffffff000000000000000000000000000000000000000090811686179091556008835281842080549091169094179093558190522054600954610ecc9190612770565b6009556040513381527feeda149c76076b34d4b9d8896c2f7efc0d33d1c7b53ea3c5db490d64613f603a9060200160405180910390a1565b6000610f103383611a6d565b610f3b7f00000000000000000000000000000000000000000000000000000000000000008484611c09565b50600192915050565b6000610f4f84611cdd565b610f5883611cdd565b610f63848484611d32565b949350505050565b6000610b453383610f04565b600033308103610fef5760405162461bcd60e51b815260206004820152602360248201527f4552433230577261707065723a20777261707065722063616e2774206465706f60448201527f736974000000000000000000000000000000000000000000000000000000000060648201526084016102af565b61101b7f0000000000000000000000000000000000000000000000000000000000000000823086611d4b565b610b3f8484611daf565b60007f000000000000000000000000000000000000000000000000000000000000000073ffffffffffffffffffffffffffffffffffffffff1663313ce5676040518163ffffffff1660e01b8152600401602060405180830381865afa9250505080156110cc575060408051601f3d9081017fffffffffffffffffffffffffffffffffffffffffffffffffffffffffffffffe01682019092526110c991810190612783565b60015b6110d65750601290565b919050565b33600081815260016020908152604080832073ffffffffffffffffffffffffffffffffffffffff87168452909152812054909190610b3f9082908690611122908790612770565b6118ee565b73ffffffffffffffffffffffffffffffffffffffff811660009081526007602052604081206001015461115983611e94565b610b459190612770565b60065473ffffffffffffffffffffffffffffffffffffffff16331461118757600080fd5b600680547fffffffffffffffffffffffff00000000000000000000000000000000000000001673ffffffffffffffffffffffffffffffffffffffff92909216919091179055565b6111d6611895565b3373ffffffffffffffffffffffffffffffffffffffff7f000000000000000000000000000000000000000000000000000000000000000016146112815760405162461bcd60e51b815260206004820152602160248201527f6f6e6c792063616c6c61626c6520627920666163746f727920636f6e7472616360448201527f740000000000000000000000000000000000000000000000000000000000000060648201526084016102af565b6040517f4903b0d10000000000000000000000000000000000000000000000000000000081527f000000000000000000000000000000000000000000000000000000000000000060048201526000907f000000000000000000000000000000000000000000000000000000000000000073ffffffffffffffffffffffffffffffffffffffff1690634903b0d190602401602060405180830381865afa15801561132e573d6000803e3d6000fd5b505050506040513d601f19601f820116820180604052508101906113529190612757565b9050600081116113a45760405162461bcd60e51b815260206004820152601f60248201527f6e6f2066756e647320746f2070756c6c2066726f6d207475726e7374696c650060448201526064016102af565b6040517fe63697c80000000000000000000000000000000000000000000000000000000081527f00000000000000000000000000000000000000000000000000000000000000006004820152306024820152604481018290527f000000000000000000000000000000000000000000000000000000000000000073ffffffffffffffffffffffffffffffffffffffff169063e63697c8906064016020604051808303816000875af115801561145d573d6000803e3d6000fd5b505050506040513d601f19601f820116820180604052508101906114819190612757565b5060408051338152602081018390527f3701e589bebc20cd70bb7572632201203ea54c547b9d4f159e7d9230955613f0910160405180910390a180600a546114c99190612770565b600a5560006114db3a62012e8b612682565b90508082111561152557604051329082156108fc029083906000818181858888f19350505050158015611512573d6000803e3d6000fd5b5080600a5461152191906126d4565b600a555b5050610a9d6001600555565b606060048054610aae90612704565b60065473ffffffffffffffffffffffffffffffffffffffff16331461156457600080fd5b73ffffffffffffffffffffffffffffffffffffffff82811660009081526007602052604090205416156115fe5760405162461bcd60e51b8152602060048201526024808201527f6164647265737320616c726561647920696e2074686520636c61696d6572732060448201527f6c6973740000000000000000000000000000000000000000000000000000000060648201526084016102af565b73ffffffffffffffffffffffffffffffffffffffff828116600081815260076020908152604080832080549587167fffffffffffffffffffffffff0000000000000000000000000000000000000000968716811790915583526008825280832080549095168417909455918152908190522054600960008282546116829190612770565b90915550505050565b33600081815260016020908152604080832073ffffffffffffffffffffffffffffffffffffffff87168452909152812054909190838110156117355760405162461bcd60e51b815260206004820152602560248201527f45524332303a2064656372656173656420616c6c6f77616e63652062656c6f7760448201527f207a65726f00000000000000000000000000000000000000000000000000000060648201526084016102af565b61174282868684036118ee565b506001949350505050565b600061175833611cdd565b61176183611cdd565b61176b8383611f3d565b9392505050565b60065473ffffffffffffffffffffffffffffffffffffffff16331461179657600080fd5b73ffffffffffffffffffffffffffffffffffffffff8181166000908152600760205260409020541661180a5760405162461bcd60e51b815260206004820152601b60248201527f6164647265737320616c7265616479206e6f7420636c61696d6572000000000060448201526064016102af565b73ffffffffffffffffffffffffffffffffffffffff8116600090815260076020908152604080832080547fffffffffffffffffffffffff00000000000000000000000000000000000000009081169091556008835281842080549091169055908290529020546009600082825461188191906126d4565b909155505050565b6000610b453383610f77565b6002600554036118e75760405162461bcd60e51b815260206004820152601f60248201527f5265656e7472616e637947756172643a207265656e7472616e742063616c6c0060448201526064016102af565b6002600555565b73ffffffffffffffffffffffffffffffffffffffff83166119765760405162461bcd60e51b8152602060048201526024808201527f45524332303a20617070726f76652066726f6d20746865207a65726f2061646460448201527f726573730000000000000000000000000000000000000000000000000000000060648201526084016102af565b73ffffffffffffffffffffffffffffffffffffffff82166119ff5760405162461bcd60e51b815260206004820152602260248201527f45524332303a20617070726f766520746f20746865207a65726f20616464726560448201527f737300000000000000000000000000000000000000000000000000000000000060648201526084016102af565b73ffffffffffffffffffffffffffffffffffffffff83811660008181526001602090815260408083209487168084529482529182902085905590518481527f8c5be1e5ebec7d5bd14f71427d1e84f3dd0314c0f7b2291e5b200ac8c7c3b925910160405180910390a3505050565b73ffffffffffffffffffffffffffffffffffffffff8216611af65760405162461bcd60e51b815260206004820152602160248201527f45524332303a206275726e2066726f6d20746865207a65726f2061646472657360448201527f730000000000000000000000000000000000000000000000000000000000000060648201526084016102af565b73ffffffffffffffffffffffffffffffffffffffff821660009081526020819052604090205481811015611b925760405162461bcd60e51b815260206004820152602260248201527f45524332303a206275726e20616d6f756e7420657863656564732062616c616e60448201527f636500000000000000000000000000000000000000000000000000000000000060648201526084016102af565b73ffffffffffffffffffffffffffffffffffffffff83166000818152602081815260408083208686039055600280548790039055518581529192917fddf252ad1be2c89b69c2b068fc378daa952ba7f163c4a11628f55a4df523b3ef910160405180910390a3611c0483600084611f4b565b505050565b60405173ffffffffffffffffffffffffffffffffffffffff8316602482015260448101829052611c049084907fa9059cbb00000000000000000000000000000000000000000000000000000000906064015b604080517fffffffffffffffffffffffffffffffffffffffffffffffffffffffffffffffe08184030181529190526020810180517bffffffffffffffffffffffffffffffffffffffffffffffffffffffff167fffffffff0000000000000000000000000000000000000000000000000000000090931692909217909152611fcd565b6000611ce882611e94565b600a5473ffffffffffffffffffffffffffffffffffffffff841660009081526007602052604081206002810192909255600190910180549293508392909190611682908490612770565b600033611d408582856120c2565b611742858585612179565b60405173ffffffffffffffffffffffffffffffffffffffff80851660248301528316604482015260648101829052611da99085907f23b872dd0000000000000000000000000000000000000000000000000000000090608401611c5b565b50505050565b73ffffffffffffffffffffffffffffffffffffffff8216611e125760405162461bcd60e51b815260206004820152601f60248201527f45524332303a206d696e7420746f20746865207a65726f20616464726573730060448201526064016102af565b8060026000828254611e249190612770565b909155505073ffffffffffffffffffffffffffffffffffffffff8216600081815260208181526040808320805486019055518481527fddf252ad1be2c89b69c2b068fc378daa952ba7f163c4a11628f55a4df523b3ef910160405180910390a3611e9060008383611f4b565b5050565b73ffffffffffffffffffffffffffffffffffffffff818116600090815260076020526040812054909116611eca57506000919050565b60095473ffffffffffffffffffffffffffffffffffffffff8316600090815260076020526040902060020154600a54611f0391906126d4565b73ffffffffffffffffffffffffffffffffffffffff8416600090815260208190526040902054611f339190612682565b610b459190612699565b600033610b3f818585612179565b73ffffffffffffffffffffffffffffffffffffffff8381166000908152600760205260409020541615611f8a5780600954611f8691906126d4565b6009555b73ffffffffffffffffffffffffffffffffffffffff8281166000908152600760205260409020541615611c045780600954611fc59190612770565b600955505050565b600061202f826040518060400160405280602081526020017f5361666545524332303a206c6f772d6c6576656c2063616c6c206661696c65648152508573ffffffffffffffffffffffffffffffffffffffff166123a09092919063ffffffff16565b905080516000148061205057508080602001905181019061205091906127a6565b611c045760405162461bcd60e51b815260206004820152602a60248201527f5361666545524332303a204552433230206f7065726174696f6e20646964206e60448201527f6f7420737563636565640000000000000000000000000000000000000000000060648201526084016102af565b73ffffffffffffffffffffffffffffffffffffffff8381166000908152600160209081526040808320938616835292905220547fffffffffffffffffffffffffffffffffffffffffffffffffffffffffffffffff8114611da9578181101561216c5760405162461bcd60e51b815260206004820152601d60248201527f45524332303a20696e73756666696369656e7420616c6c6f77616e636500000060448201526064016102af565b611da984848484036118ee565b73ffffffffffffffffffffffffffffffffffffffff83166122025760405162461bcd60e51b815260206004820152602560248201527f45524332303a207472616e736665722066726f6d20746865207a65726f20616460448201527f647265737300000000000000000000000000000000000000000000000000000060648201526084016102af565b73ffffffffffffffffffffffffffffffffffffffff821661228b5760405162461bcd60e51b815260206004820152602360248201527f45524332303a207472616e7366657220746f20746865207a65726f206164647260448201527f657373000000000000000000000000000000000000000000000000000000000060648201526084016102af565b73ffffffffffffffffffffffffffffffffffffffff8316600090815260208190526040902054818110156123275760405162461bcd60e51b815260206004820152602660248201527f45524332303a207472616e7366657220616d6f756e742065786365656473206260448201527f616c616e6365000000000000000000000000000000000000000000000000000060648201526084016102af565b73ffffffffffffffffffffffffffffffffffffffff848116600081815260208181526040808320878703905593871680835291849020805487019055925185815290927fddf252ad1be2c89b69c2b068fc378daa952ba7f163c4a11628f55a4df523b3ef910160405180910390a3611da9848484611f4b565b6060610f638484600085856000808673ffffffffffffffffffffffffffffffffffffffff1685876040516123d491906127c8565b60006040518083038185875af1925050503d8060008114612411576040519150601f19603f3d011682016040523d82523d6000602084013e612416565b606091505b509150915061242787838387612432565b979650505050505050565b606083156124ae5782516000036124a75773ffffffffffffffffffffffffffffffffffffffff85163b6124a75760405162461bcd60e51b815260206004820152601d60248201527f416464726573733a2063616c6c20746f206e6f6e2d636f6e747261637400000060448201526064016102af565b5081610f63565b610f6383838151156124c35781518083602001fd5b8060405162461bcd60e51b81526004016102af9190612501565b60005b838110156124f85781810151838201526020016124e0565b50506000910152565b60208152600082518060208401526125208160408501602087016124dd565b601f017fffffffffffffffffffffffffffffffffffffffffffffffffffffffffffffffe0169190910160400192915050565b73ffffffffffffffffffffffffffffffffffffffff8116811461257457600080fd5b50565b6000806040838503121561258a57600080fd5b823561259581612552565b946020939093013593505050565b6000602082840312156125b557600080fd5b813561176b81612552565b6000806000606084860312156125d557600080fd5b83356125e081612552565b925060208401356125f081612552565b929592945050506040919091013590565b60006020828403121561261357600080fd5b5035919050565b6000806040838503121561262d57600080fd5b823561263881612552565b9150602083013561264881612552565b809150509250929050565b7f4e487b7100000000000000000000000000000000000000000000000000000000600052601160045260246000fd5b8082028115828204841417610b4557610b45612653565b6000826126cf577f4e487b7100000000000000000000000000000000000000000000000000000000600052601260045260246000fd5b500490565b81810381811115610b4557610b45612653565b6000602082840312156126f957600080fd5b815161176b81612552565b600181811c9082168061271857607f821691505b602082108103612751577f4e487b7100000000000000000000000000000000000000000000000000000000600052602260045260246000fd5b50919050565b60006020828403121561276957600080fd5b5051919050565b80820180821115610b4557610b45612653565b60006020828403121561279557600080fd5b815160ff8116811461176b57600080fd5b6000602082840312156127b857600080fd5b8151801515811461176b57600080fd5b600082516127da8184602087016124dd565b919091019291505056fea2646970667358221220d106a11a4bccc68aabf2ecb69333f35e36309833ab160493cd5b9e14159647a264736f6c63430008110033a2646970667358221220a2d97ecbe033ad0fc20e2b3b7140b1b14ee304f9fa0de44774471ea152a6dbb564736f6c63430008110033",
    "linkReferences": {}
  },
  "methodIdentifiers": {
    "addClaimer(address,address,address)": "c2fa7016",
    "create(address)": "9ed93318",
    "cron()": "b90dc8ff",
    "csc_stakers()": "04d5f087",
    "delClaimer(address,address)": "5390f63a",
    "getCSCstakersAddress()": "185a0ea6",
    "getCsrERC20(address)": "a7c8b7fd",
    "getERC20(address)": "4e0dc557",
    "getTokenPairById(uint256)": "3792810f",
    "getTokenPairsCount()": "637c69ff",
    "hasBeenCreated(address)": "6cc0ce73",
    "isCsrERC20(address)": "f871da80",
    "owner()": "8da5cb5b",
    "pullFundsFromTurnstile(address)": "857ed34f",
    "renounceOwnership()": "715018a6",
    "setAdmin(address,address)": "c55b6bb7",
    "setCron(address)": "b38db982",
    "setCscStakers(address)": "bec4f2ca",
    "tokenPairs(uint256)": "a15369d1",
    "transferOwnership(address)": "f2fde38b"
  },
  "id": 3
}