{
  "abi": [
    {
      "inputs": [
        {
          "internalType": "contract ERC20",
          "name": "erc20",
          "type": "address"
        },
        {
          "internalType": "address",
          "name": "turnstileAddr",
          "type": "address"
        },
        {
          "internalType": "address",
          "name": "admin",
          "type": "address"
        }
      ],
      "stateMutability": "nonpayable",
      "type": "constructor"
    },
    {
      "anonymous": false,
      "inputs": [
        {
          "indexed": true,
          "internalType": "address",
          "name": "owner",
          "type": "address"
        },
        {
          "indexed": true,
          "internalType": "address",
          "name": "spender",
          "type": "address"
        },
        {
          "indexed": false,
          "internalType": "uint256",
          "name": "value",
          "type": "uint256"
        }
      ],
      "name": "Approval",
      "type": "event"
    },
    {
      "anonymous": false,
      "inputs": [
        {
          "indexed": true,
          "internalType": "address",
          "name": "account",
          "type": "address"
        },
        {
          "indexed": false,
          "internalType": "uint256",
          "name": "claimed",
          "type": "uint256"
        }
      ],
      "name": "Claim",
      "type": "event"
    },
    {
      "anonymous": false,
      "inputs": [
        {
          "indexed": false,
          "internalType": "address",
          "name": "from",
          "type": "address"
        },
        {
          "indexed": false,
          "internalType": "uint256",
          "name": "amount",
          "type": "uint256"
        }
      ],
      "name": "ContractReceived",
      "type": "event"
    },
    {
      "anonymous": false,
      "inputs": [
        {
          "indexed": true,
          "internalType": "address",
          "name": "account",
          "type": "address"
        },
        {
          "indexed": false,
          "internalType": "uint256",
          "name": "amount",
          "type": "uint256"
        }
      ],
      "name": "Deposit",
      "type": "event"
    },
    {
      "anonymous": false,
      "inputs": [
        {
          "indexed": false,
          "internalType": "address",
          "name": "from",
          "type": "address"
        },
        {
          "indexed": false,
          "internalType": "uint256",
          "name": "amount",
          "type": "uint256"
        }
      ],
      "name": "PullFundsFromTurnstile",
      "type": "event"
    },
    {
      "anonymous": false,
      "inputs": [
        {
          "indexed": false,
          "internalType": "address",
          "name": "account",
          "type": "address"
        }
      ],
      "name": "Register",
      "type": "event"
    },
    {
      "anonymous": false,
      "inputs": [
        {
          "indexed": true,
          "internalType": "address",
          "name": "from",
          "type": "address"
        },
        {
          "indexed": true,
          "internalType": "address",
          "name": "to",
          "type": "address"
        },
        {
          "indexed": false,
          "internalType": "uint256",
          "name": "value",
          "type": "uint256"
        }
      ],
      "name": "Transfer",
      "type": "event"
    },
    {
      "anonymous": false,
      "inputs": [
        {
          "indexed": true,
          "internalType": "address",
          "name": "account",
          "type": "address"
        },
        {
          "indexed": false,
          "internalType": "uint256",
          "name": "amount",
          "type": "uint256"
        }
      ],
      "name": "Withdraw",
      "type": "event"
    },
    {
      "inputs": [],
      "name": "ADMIN",
      "outputs": [
        {
          "internalType": "address",
          "name": "",
          "type": "address"
        }
      ],
      "stateMutability": "view",
      "type": "function"
    },
    {
      "inputs": [
        {
          "internalType": "address",
          "name": "addr",
          "type": "address"
        },
        {
          "internalType": "address",
          "name": "payee",
          "type": "address"
        }
      ],
      "name": "addClaimer",
      "outputs": [],
      "stateMutability": "nonpayable",
      "type": "function"
    },
    {
      "inputs": [
        {
          "internalType": "address",
          "name": "owner",
          "type": "address"
        },
        {
          "internalType": "address",
          "name": "spender",
          "type": "address"
        }
      ],
      "name": "allowance",
      "outputs": [
        {
          "internalType": "uint256",
          "name": "",
          "type": "uint256"
        }
      ],
      "stateMutability": "view",
      "type": "function"
    },
    {
      "inputs": [
        {
          "internalType": "address",
          "name": "spender",
          "type": "address"
        },
        {
          "internalType": "uint256",
          "name": "amount",
          "type": "uint256"
        }
      ],
      "name": "approve",
      "outputs": [
        {
          "internalType": "bool",
          "name": "",
          "type": "bool"
        }
      ],
      "stateMutability": "nonpayable",
      "type": "function"
    },
    {
      "inputs": [
        {
          "internalType": "address",
          "name": "_forAddress",
          "type": "address"
        }
      ],
      "name": "availableFunds",
      "outputs": [
        {
          "internalType": "uint256",
          "name": "",
          "type": "uint256"
        }
      ],
      "stateMutability": "view",
      "type": "function"
    },
    {
      "inputs": [
        {
          "internalType": "address",
          "name": "account",
          "type": "address"
        }
      ],
      "name": "balanceOf",
      "outputs": [
        {
          "internalType": "uint256",
          "name": "",
          "type": "uint256"
        }
      ],
      "stateMutability": "view",
      "type": "function"
    },
    {
      "inputs": [],
      "name": "claimersTotalSupply",
      "outputs": [
        {
          "internalType": "uint256",
          "name": "",
          "type": "uint256"
        }
      ],
      "stateMutability": "view",
      "type": "function"
    },
    {
      "inputs": [],
      "name": "decimals",
      "outputs": [
        {
          "internalType": "uint8",
          "name": "",
          "type": "uint8"
        }
      ],
      "stateMutability": "view",
      "type": "function"
    },
    {
      "inputs": [
        {
          "internalType": "address",
          "name": "spender",
          "type": "address"
        },
        {
          "internalType": "uint256",
          "name": "subtractedValue",
          "type": "uint256"
        }
      ],
      "name": "decreaseAllowance",
      "outputs": [
        {
          "internalType": "bool",
          "name": "",
          "type": "bool"
        }
      ],
      "stateMutability": "nonpayable",
      "type": "function"
    },
    {
      "inputs": [
        {
          "internalType": "address",
          "name": "addr",
          "type": "address"
        }
      ],
      "name": "delClaimer",
      "outputs": [],
      "stateMutability": "nonpayable",
      "type": "function"
    },
    {
      "inputs": [
        {
          "internalType": "uint256",
          "name": "amount",
          "type": "uint256"
        }
      ],
      "name": "deposit",
      "outputs": [
        {
          "internalType": "bool",
          "name": "success",
          "type": "bool"
        }
      ],
      "stateMutability": "nonpayable",
      "type": "function"
    },
    {
      "inputs": [
        {
          "internalType": "address",
          "name": "account",
          "type": "address"
        },
        {
          "internalType": "uint256",
          "name": "amount",
          "type": "uint256"
        }
      ],
      "name": "depositFor",
      "outputs": [
        {
          "internalType": "bool",
          "name": "",
          "type": "bool"
        }
      ],
      "stateMutability": "nonpayable",
      "type": "function"
    },
    {
      "inputs": [
        {
          "internalType": "address",
          "name": "",
          "type": "address"
        }
      ],
      "name": "holders",
      "outputs": [
        {
          "internalType": "address",
          "name": "payee",
          "type": "address"
        },
        {
          "internalType": "uint256",
          "name": "claimedFunds",
          "type": "uint256"
        },
        {
          "internalType": "uint256",
          "name": "processedFunds",
          "type": "uint256"
        }
      ],
      "stateMutability": "view",
      "type": "function"
    },
    {
      "inputs": [
        {
          "internalType": "address",
          "name": "spender",
          "type": "address"
        },
        {
          "internalType": "uint256",
          "name": "addedValue",
          "type": "uint256"
        }
      ],
      "name": "increaseAllowance",
      "outputs": [
        {
          "internalType": "bool",
          "name": "",
          "type": "bool"
        }
      ],
      "stateMutability": "nonpayable",
      "type": "function"
    },
    {
      "inputs": [
        {
          "internalType": "address",
          "name": "addr",
          "type": "address"
        }
      ],
      "name": "isClaimer",
      "outputs": [
        {
          "internalType": "bool",
          "name": "",
          "type": "bool"
        }
      ],
      "stateMutability": "view",
      "type": "function"
    },
    {
      "inputs": [],
      "name": "name",
      "outputs": [
        {
          "internalType": "string",
          "name": "",
          "type": "string"
        }
      ],
      "stateMutability": "view",
      "type": "function"
    },
    {
      "inputs": [
        {
          "internalType": "address",
          "name": "",
          "type": "address"
        }
      ],
      "name": "payees",
      "outputs": [
        {
          "internalType": "address",
          "name": "",
          "type": "address"
        }
      ],
      "stateMutability": "view",
      "type": "function"
    },
    {
      "inputs": [],
      "name": "pullFundsFromTurnstile",
      "outputs": [],
      "stateMutability": "nonpayable",
      "type": "function"
    },
    {
      "inputs": [],
      "name": "receivedFunds",
      "outputs": [
        {
          "internalType": "uint256",
          "name": "",
          "type": "uint256"
        }
      ],
      "stateMutability": "view",
      "type": "function"
    },
    {
      "inputs": [],
      "name": "register",
      "outputs": [],
      "stateMutability": "nonpayable",
      "type": "function"
    },
    {
      "inputs": [
        {
          "internalType": "address",
          "name": "addr",
          "type": "address"
        }
      ],
      "name": "setAdmin",
      "outputs": [],
      "stateMutability": "nonpayable",
      "type": "function"
    },
    {
      "inputs": [],
      "name": "symbol",
      "outputs": [
        {
          "internalType": "string",
          "name": "",
          "type": "string"
        }
      ],
      "stateMutability": "view",
      "type": "function"
    },
    {
      "inputs": [],
      "name": "totalSupply",
      "outputs": [
        {
          "internalType": "uint256",
          "name": "",
          "type": "uint256"
        }
      ],
      "stateMutability": "view",
      "type": "function"
    },
    {
      "inputs": [
        {
          "internalType": "address",
          "name": "_to",
          "type": "address"
        },
        {
          "internalType": "uint256",
          "name": "_value",
          "type": "uint256"
        }
      ],
      "name": "transfer",
      "outputs": [
        {
          "internalType": "bool",
          "name": "",
          "type": "bool"
        }
      ],
      "stateMutability": "nonpayable",
      "type": "function"
    },
    {
      "inputs": [
        {
          "internalType": "address",
          "name": "_from",
          "type": "address"
        },
        {
          "internalType": "address",
          "name": "_to",
          "type": "address"
        },
        {
          "internalType": "uint256",
          "name": "_value",
          "type": "uint256"
        }
      ],
      "name": "transferFrom",
      "outputs": [
        {
          "internalType": "bool",
          "name": "",
          "type": "bool"
        }
      ],
      "stateMutability": "nonpayable",
      "type": "function"
    },
    {
      "inputs": [],
      "name": "turnstileTokenId",
      "outputs": [
        {
          "internalType": "uint256",
          "name": "",
          "type": "uint256"
        }
      ],
      "stateMutability": "view",
      "type": "function"
    },
    {
      "inputs": [],
      "name": "underlying",
      "outputs": [
        {
          "internalType": "contract IERC20",
          "name": "",
          "type": "address"
        }
      ],
      "stateMutability": "view",
      "type": "function"
    },
    {
      "inputs": [
        {
          "internalType": "uint256",
          "name": "amount",
          "type": "uint256"
        }
      ],
      "name": "withdraw",
      "outputs": [
        {
          "internalType": "bool",
          "name": "success",
          "type": "bool"
        }
      ],
      "stateMutability": "nonpayable",
      "type": "function"
    },
    {
      "inputs": [],
      "name": "withdrawClaimed",
      "outputs": [],
      "stateMutability": "nonpayable",
      "type": "function"
    },
    {
      "inputs": [
        {
          "internalType": "address",
          "name": "account",
          "type": "address"
        },
        {
          "internalType": "uint256",
          "name": "amount",
          "type": "uint256"
        }
      ],
      "name": "withdrawTo",
      "outputs": [
        {
          "internalType": "bool",
          "name": "",
          "type": "bool"
        }
      ],
      "stateMutability": "nonpayable",
      "type": "function"
    },
    {
      "stateMutability": "payable",
      "type": "receive"
    }
  ],
  "bytecode": {
    "object": "0x60e060405260006009553480156200001657600080fd5b5060405162002421380380620024218339810160408190526200003991620002f3565b82836001600160a01b03166306fdde036040518163ffffffff1660e01b8152600401600060405180830381865afa15801562000079573d6000803e3d6000fd5b505050506040513d6000823e601f3d908101601f19168201604052620000a3919081019062000383565b604051602001620000b591906200043b565b604051602081830303815290604052846001600160a01b03166395d89b416040518163ffffffff1660e01b8152600401600060405180830381865afa15801562000103573d6000803e3d6000fd5b505050506040513d6000823e601f3d908101601f191682016040526200012d919081019062000383565b6040516020016200013f919062000471565b60408051601f1981840301815291905260036200015d83826200052d565b5060046200016c82826200052d565b5050306001600160a01b038316039050620001cd5760405162461bcd60e51b815260206004820152601e60248201527f4552433230577261707065723a2063616e6e6f742073656c6620777261700000604482015260640160405180910390fd5b6001600160a01b039081166080526001600555600680546001600160a01b031916838316179055821660a0819052604051632210724360e11b8152306004820152634420e486906024016020604051808303816000875af115801562000237573d6000803e3d6000fd5b505050506040513d601f19601f820116820180604052508101906200025d9190620005f9565b5060a0516040516378a9bb4360e11b81523060048201526001600160a01b039091169063f153768690602401602060405180830381865afa158015620002a7573d6000803e3d6000fd5b505050506040513d601f19601f82011682018060405250810190620002cd9190620005f9565b60c0525062000613915050565b6001600160a01b0381168114620002f057600080fd5b50565b6000806000606084860312156200030957600080fd5b83516200031681620002da565b60208501519093506200032981620002da565b60408501519092506200033c81620002da565b809150509250925092565b634e487b7160e01b600052604160045260246000fd5b60005b838110156200037a57818101518382015260200162000360565b50506000910152565b6000602082840312156200039657600080fd5b81516001600160401b0380821115620003ae57600080fd5b818401915084601f830112620003c357600080fd5b815181811115620003d857620003d862000347565b604051601f8201601f19908116603f0116810190838211818310171562000403576200040362000347565b816040528281528760208487010111156200041d57600080fd5b620004308360208301602088016200035d565b979650505050505050565b6b021a9a91032b730b13632b2160a51b8152600082516200046481600c8501602087016200035d565b91909101600c0192915050565b6231b9b960e91b815260008251620004918160038501602087016200035d565b9190910160030192915050565b600181811c90821680620004b357607f821691505b602082108103620004d457634e487b7160e01b600052602260045260246000fd5b50919050565b601f8211156200052857600081815260208120601f850160051c81016020861015620005035750805b601f850160051c820191505b8181101562000524578281556001016200050f565b5050505b505050565b81516001600160401b0381111562000549576200054962000347565b62000561816200055a84546200049e565b84620004da565b602080601f831160018114620005995760008415620005805750858301515b600019600386901b1c1916600185901b17855562000524565b600085815260208120601f198616915b82811015620005ca57888601518255948401946001909101908401620005a9565b5085821015620005e95787850151600019600388901b60f8161c191681555b5050505050600190811b01905550565b6000602082840312156200060c57600080fd5b5051919050565b60805160a05160c051611dad62000674600039600081816106d80152818161096a0152610a670152600081816101e1015281816109930152610a9a0152600081816105a101528181610cb601528181610d7b0152610db00152611dad6000f3fe6080604052600436106101d15760003560e01c806339509351116100f757806396db081611610095578063adf9b68511610064578063adf9b685146106a6578063af0770bd146106c6578063b6b55f25146106fa578063dd62ed3e1461071a57600080fd5b806396db081614610630578063a457c2d714610650578063a9059cbb14610670578063ab96cc4c1461069057600080fd5b80636f307dc3116100d15780636f307dc314610592578063704b6c02146105c557806370a08231146105e557806395d89b411461061b57600080fd5b8063395093511461053c57806347c88f5c1461055c5780635d16eb5c1461057257600080fd5b80631aa3a0081161016f5780632e1a7d4d1161013e5780632e1a7d4d1461049f5780632f4f21e2146104bf578063310441fa146104df578063313ce5671461051557600080fd5b80631aa3a00814610412578063205c28781461042757806323b872dd146104475780632a0acc6a1461046757600080fd5b806310a8aecd116101ab57806310a8aecd1461033857806318160ddd1461037357806318a5bbdc146103925780631a675ec3146103fd57600080fd5b80630528588d146102c657806306fdde03146102dd578063095ea7b31461030857600080fd5b366102c157336001600160a01b037f000000000000000000000000000000000000000000000000000000000000000016146102875760405162461bcd60e51b8152602060048201526044602482018190527f61636365707420726563656976696e6720706c61696e202443414e544f207472908201527f616e7366657273206f6e6c792066726f6d207475726e7374696c6520636f6e746064820152631c9858dd60e21b608482015260a4015b60405180910390fd5b604080513381523460208201527f384b519ff9819d5a6c5a3e9480fa98990502d9adc22e68e77d0eac7efcce845b910160405180910390a1005b600080fd5b3480156102d257600080fd5b506102db61073a565b005b3480156102e957600080fd5b506102f26108a7565b6040516102ff9190611b37565b60405180910390f35b34801561031457600080fd5b50610328610323366004611b81565b610939565b60405190151581526020016102ff565b34801561034457600080fd5b50610328610353366004611bab565b6001600160a01b0390811660009081526007602052604090205416151590565b34801561037f57600080fd5b506002545b6040519081526020016102ff565b34801561039e57600080fd5b506103d86103ad366004611bab565b6007602052600090815260409020805460018201546002909201546001600160a01b03909116919083565b604080516001600160a01b0390941684526020840192909252908201526060016102ff565b34801561040957600080fd5b506102db610953565b34801561041e57600080fd5b506102db610b6f565b34801561043357600080fd5b50610328610442366004611b81565b610ca5565b34801561045357600080fd5b50610328610462366004611bc6565b610ce5565b34801561047357600080fd5b50600654610487906001600160a01b031681565b6040516001600160a01b0390911681526020016102ff565b3480156104ab57600080fd5b506103286104ba366004611c02565b610d0c565b3480156104cb57600080fd5b506103286104da366004611b81565b610d18565b3480156104eb57600080fd5b506104876104fa366004611bab565b6008602052600090815260409020546001600160a01b031681565b34801561052157600080fd5b5061052a610dac565b60405160ff90911681526020016102ff565b34801561054857600080fd5b50610328610557366004611b81565b610e37565b34801561056857600080fd5b5061038460095481565b34801561057e57600080fd5b5061038461058d366004611bab565b610e59565b34801561059e57600080fd5b507f0000000000000000000000000000000000000000000000000000000000000000610487565b3480156105d157600080fd5b506102db6105e0366004611bab565b610e88565b3480156105f157600080fd5b50610384610600366004611bab565b6001600160a01b031660009081526020819052604090205490565b34801561062757600080fd5b506102f2610ec1565b34801561063c57600080fd5b506102db61064b366004611c1b565b610ed0565b34801561065c57600080fd5b5061032861066b366004611b81565b610fc3565b34801561067c57600080fd5b5061032861068b366004611b81565b611049565b34801561069c57600080fd5b50610384600a5481565b3480156106b257600080fd5b506102db6106c1366004611bab565b61106e565b3480156106d257600080fd5b506103847f000000000000000000000000000000000000000000000000000000000000000081565b34801561070657600080fd5b50610328610715366004611c02565b611146565b34801561072657600080fd5b50610384610735366004611c1b565b611152565b61074261117d565b6000600954116107865760405162461bcd60e51b815260206004820152600f60248201526e1b9bc818db185a5b595c9cc81e595d608a1b604482015260640161027e565b336000908152600860205260409020546001600160a01b03166107e45760405162461bcd60e51b81526020600482015260166024820152751b9bdd081a5b881d1a19481c185e59595cc81b1a5cdd60521b604482015260640161027e565b336000818152600860208181526040808420546001600160a01b03168085526007835290842094845291905261081990610e59565b600a546002840155600060018401819055604051919250339183156108fc0291849190818181858888f19350505050158015610859573d6000803e3d6000fd5b5061086430826111d6565b60405181815233907f47cee97cb7acd717b3c0aa1435d004cd5b3c8c57d70dbceb4e4458bbd60e39d49060200160405180910390a250506108a56001600555565b565b6060600380546108b690611c4e565b80601f01602080910402602001604051908101604052809291908181526020018280546108e290611c4e565b801561092f5780601f106109045761010080835404028352916020019161092f565b820191906000526020600020905b81548152906001019060200180831161091257829003601f168201915b5050505050905090565b600033610947818585611314565b60019150505b92915050565b61095b61117d565b604051634903b0d160e01b81527f000000000000000000000000000000000000000000000000000000000000000060048201526000907f00000000000000000000000000000000000000000000000000000000000000006001600160a01b031690634903b0d190602401602060405180830381865afa1580156109e2573d6000803e3d6000fd5b505050506040513d601f19601f82011682018060405250810190610a069190611c88565b905060008111610a585760405162461bcd60e51b815260206004820152601f60248201527f6e6f2066756e647320746f2070756c6c2066726f6d207475726e7374696c6500604482015260640161027e565b604051631cc6d2f960e31b81527f00000000000000000000000000000000000000000000000000000000000000006004820152306024820152604481018290527f00000000000000000000000000000000000000000000000000000000000000006001600160a01b03169063e63697c8906064016020604051808303816000875af1158015610aeb573d6000803e3d6000fd5b505050506040513d601f19601f82011682018060405250810190610b0f9190611c88565b50610b1a3082611438565b80600a54610b289190611cb7565b600a5560408051338152602081018390527f3701e589bebc20cd70bb7572632201203ea54c547b9d4f159e7d9230955613f0910160405180910390a1506108a56001600555565b323314610bbe5760405162461bcd60e51b815260206004820152601960248201527f52656769737472616e74206d75737420626520616e20454f4100000000000000604482015260640161027e565b336000908152600760205260409020546001600160a01b031615610c245760405162461bcd60e51b815260206004820152601f60248201527f416c72656164792072656769737465726564206173206120636c61696d657200604482015260640161027e565b33600081815260076020908152604080832080546001600160a01b031990811686179091556008835281842080549091169094179093558190522054600954610c6d9190611cb7565b6009556040513381527feeda149c76076b34d4b9d8896c2f7efc0d33d1c7b53ea3c5db490d64613f603a9060200160405180910390a1565b6000610cb133836111d6565b610cdc7f00000000000000000000000000000000000000000000000000000000000000008484611503565b50600192915050565b6000610cf084611566565b610cf983611566565b610d048484846115ae565b949350505050565b600061094d3383610ca5565b600033308103610d765760405162461bcd60e51b815260206004820152602360248201527f4552433230577261707065723a20777261707065722063616e2774206465706f6044820152621cda5d60ea1b606482015260840161027e565b610da27f00000000000000000000000000000000000000000000000000000000000000008230866115c7565b6109478484611438565b60007f00000000000000000000000000000000000000000000000000000000000000006001600160a01b031663313ce5676040518163ffffffff1660e01b8152600401602060405180830381865afa925050508015610e28575060408051601f3d908101601f19168201909252610e2591810190611cca565b60015b610e325750601290565b919050565b600033610947818585610e4a8383611152565b610e549190611cb7565b611314565b6001600160a01b038116600090815260076020526040812060010154610e7e83611605565b61094d9190611cb7565b6006546001600160a01b03163314610e9f57600080fd5b600680546001600160a01b0319166001600160a01b0392909216919091179055565b6060600480546108b690611c4e565b6006546001600160a01b03163314610ee757600080fd5b6001600160a01b038281166000908152600760205260409020541615610f5b5760405162461bcd60e51b8152602060048201526024808201527f6164647265737320616c726561647920696e2074686520636c61696d657273206044820152631b1a5cdd60e21b606482015260840161027e565b6001600160a01b03828116600081815260076020908152604080832080549587166001600160a01b031996871681179091558352600882528083208054909516841790945591815290819052205460096000828254610fba9190611cb7565b90915550505050565b60003381610fd18286611152565b9050838110156110315760405162461bcd60e51b815260206004820152602560248201527f45524332303a2064656372656173656420616c6c6f77616e63652062656c6f77604482015264207a65726f60d81b606482015260840161027e565b61103e8286868403611314565b506001949350505050565b600061105433611566565b61105d83611566565b6110678383611687565b9392505050565b6006546001600160a01b0316331461108557600080fd5b6001600160a01b03818116600090815260076020526040902054166110ec5760405162461bcd60e51b815260206004820152601b60248201527f6164647265737320616c7265616479206e6f7420636c61696d65720000000000604482015260640161027e565b6001600160a01b038116600090815260076020908152604080832080546001600160a01b03199081169091556008835281842080549091169055908290529020546009600082825461113e9190611ced565b909155505050565b600061094d3383610d18565b6001600160a01b03918216600090815260016020908152604080832093909416825291909152205490565b6002600554036111cf5760405162461bcd60e51b815260206004820152601f60248201527f5265656e7472616e637947756172643a207265656e7472616e742063616c6c00604482015260640161027e565b6002600555565b6001600160a01b0382166112365760405162461bcd60e51b815260206004820152602160248201527f45524332303a206275726e2066726f6d20746865207a65726f206164647265736044820152607360f81b606482015260840161027e565b6001600160a01b038216600090815260208190526040902054818110156112aa5760405162461bcd60e51b815260206004820152602260248201527f45524332303a206275726e20616d6f756e7420657863656564732062616c616e604482015261636560f01b606482015260840161027e565b6001600160a01b0383166000818152602081815260408083208686039055600280548790039055518581529192917fddf252ad1be2c89b69c2b068fc378daa952ba7f163c4a11628f55a4df523b3ef910160405180910390a361130f83600084611695565b505050565b6001600160a01b0383166113765760405162461bcd60e51b8152602060048201526024808201527f45524332303a20617070726f76652066726f6d20746865207a65726f206164646044820152637265737360e01b606482015260840161027e565b6001600160a01b0382166113d75760405162461bcd60e51b815260206004820152602260248201527f45524332303a20617070726f766520746f20746865207a65726f206164647265604482015261737360f01b606482015260840161027e565b6001600160a01b0383811660008181526001602090815260408083209487168084529482529182902085905590518481527f8c5be1e5ebec7d5bd14f71427d1e84f3dd0314c0f7b2291e5b200ac8c7c3b925910160405180910390a3505050565b6001600160a01b03821661148e5760405162461bcd60e51b815260206004820152601f60248201527f45524332303a206d696e7420746f20746865207a65726f206164647265737300604482015260640161027e565b80600260008282546114a09190611cb7565b90915550506001600160a01b038216600081815260208181526040808320805486019055518481527fddf252ad1be2c89b69c2b068fc378daa952ba7f163c4a11628f55a4df523b3ef910160405180910390a36114ff60008383611695565b5050565b6040516001600160a01b03831660248201526044810182905261130f90849063a9059cbb60e01b906064015b60408051601f198184030181529190526020810180516001600160e01b03166001600160e01b0319909316929092179091526116fd565b600061157182611605565b600a546001600160a01b03841660009081526007602052604081206002810192909255600190910180549293508392909190610fba908490611cb7565b6000336115bc8582856117d2565b61103e858585611846565b6040516001600160a01b03808516602483015283166044820152606481018290526115ff9085906323b872dd60e01b9060840161152f565b50505050565b6001600160a01b0381811660009081526007602052604081205490911661162e57506000919050565b6009546001600160a01b038316600090815260076020526040902060020154600a5461165a9190611ced565b6001600160a01b03841660009081526020819052604090205461167d9190611d00565b61094d9190611d17565b600033610947818585611846565b6001600160a01b0383811660009081526007602052604090205416156116c757806009546116c39190611ced565b6009555b6001600160a01b03828116600090815260076020526040902054161561130f57806009546116f59190611cb7565b600955505050565b6000611752826040518060400160405280602081526020017f5361666545524332303a206c6f772d6c6576656c2063616c6c206661696c6564815250856001600160a01b03166119f09092919063ffffffff16565b90508051600014806117735750808060200190518101906117739190611d39565b61130f5760405162461bcd60e51b815260206004820152602a60248201527f5361666545524332303a204552433230206f7065726174696f6e20646964206e6044820152691bdd081cdd58d8d9595960b21b606482015260840161027e565b60006117de8484611152565b905060001981146115ff57818110156118395760405162461bcd60e51b815260206004820152601d60248201527f45524332303a20696e73756666696369656e7420616c6c6f77616e6365000000604482015260640161027e565b6115ff8484848403611314565b6001600160a01b0383166118aa5760405162461bcd60e51b815260206004820152602560248201527f45524332303a207472616e736665722066726f6d20746865207a65726f206164604482015264647265737360d81b606482015260840161027e565b6001600160a01b03821661190c5760405162461bcd60e51b815260206004820152602360248201527f45524332303a207472616e7366657220746f20746865207a65726f206164647260448201526265737360e81b606482015260840161027e565b6001600160a01b038316600090815260208190526040902054818110156119845760405162461bcd60e51b815260206004820152602660248201527f45524332303a207472616e7366657220616d6f756e7420657863656564732062604482015265616c616e636560d01b606482015260840161027e565b6001600160a01b03848116600081815260208181526040808320878703905593871680835291849020805487019055925185815290927fddf252ad1be2c89b69c2b068fc378daa952ba7f163c4a11628f55a4df523b3ef910160405180910390a36115ff848484611695565b6060610d04848460008585600080866001600160a01b03168587604051611a179190611d5b565b60006040518083038185875af1925050503d8060008114611a54576040519150601f19603f3d011682016040523d82523d6000602084013e611a59565b606091505b5091509150611a6a87838387611a75565b979650505050505050565b60608315611ae4578251600003611add576001600160a01b0385163b611add5760405162461bcd60e51b815260206004820152601d60248201527f416464726573733a2063616c6c20746f206e6f6e2d636f6e7472616374000000604482015260640161027e565b5081610d04565b610d048383815115611af95781518083602001fd5b8060405162461bcd60e51b815260040161027e9190611b37565b60005b83811015611b2e578181015183820152602001611b16565b50506000910152565b6020815260008251806020840152611b56816040850160208701611b13565b601f01601f19169190910160400192915050565b80356001600160a01b0381168114610e3257600080fd5b60008060408385031215611b9457600080fd5b611b9d83611b6a565b946020939093013593505050565b600060208284031215611bbd57600080fd5b61106782611b6a565b600080600060608486031215611bdb57600080fd5b611be484611b6a565b9250611bf260208501611b6a565b9150604084013590509250925092565b600060208284031215611c1457600080fd5b5035919050565b60008060408385031215611c2e57600080fd5b611c3783611b6a565b9150611c4560208401611b6a565b90509250929050565b600181811c90821680611c6257607f821691505b602082108103611c8257634e487b7160e01b600052602260045260246000fd5b50919050565b600060208284031215611c9a57600080fd5b5051919050565b634e487b7160e01b600052601160045260246000fd5b8082018082111561094d5761094d611ca1565b600060208284031215611cdc57600080fd5b815160ff8116811461106757600080fd5b8181038181111561094d5761094d611ca1565b808202811582820484141761094d5761094d611ca1565b600082611d3457634e487b7160e01b600052601260045260246000fd5b500490565b600060208284031215611d4b57600080fd5b8151801515811461106757600080fd5b60008251611d6d818460208701611b13565b919091019291505056fea26469706673582212204eefb5a37aeb79fd8fc6d1ca7b71c6632e68e050670deb1f80c31d93c3d958e364736f6c63430008110033",
    "linkReferences": {}
  },
  "methodIdentifiers": {
    "ADMIN()": "2a0acc6a",
    "addClaimer(address,address)": "96db0816",
    "allowance(address,address)": "dd62ed3e",
    "approve(address,uint256)": "095ea7b3",
    "availableFunds(address)": "5d16eb5c",
    "balanceOf(address)": "70a08231",
    "claimersTotalSupply()": "47c88f5c",
    "decimals()": "313ce567",
    "decreaseAllowance(address,uint256)": "a457c2d7",
    "delClaimer(address)": "adf9b685",
    "deposit(uint256)": "b6b55f25",
    "depositFor(address,uint256)": "2f4f21e2",
    "holders(address)": "18a5bbdc",
    "increaseAllowance(address,uint256)": "39509351",
    "isClaimer(address)": "10a8aecd",
    "name()": "06fdde03",
    "payees(address)": "310441fa",
    "pullFundsFromTurnstile()": "1a675ec3",
    "receivedFunds()": "ab96cc4c",
    "register()": "1aa3a008",
    "setAdmin(address)": "704b6c02",
    "symbol()": "95d89b41",
    "totalSupply()": "18160ddd",
    "transfer(address,uint256)": "a9059cbb",
    "transferFrom(address,address,uint256)": "23b872dd",
    "turnstileTokenId()": "af0770bd",
    "underlying()": "6f307dc3",
    "withdraw(uint256)": "2e1a7d4d",
    "withdrawClaimed()": "0528588d",
    "withdrawTo(address,uint256)": "205c2878"
  },
  "id": 3
}